S01500004D6F72736550726163746963652E73726563DE
S11300000C94A5000C94C2000C94C2000C94C20081
S11300100C94C2000C94C2000C94C2000C94C20054
S11300200C94C2000C94C2000C94C2000C94C30142
S11300300C94C2000C94C2000C94C2000C94C20034
S11300400C94B4010C94C2000C94C2000C94C20031
S11300500C94C2000C94C2000C94C2000C94C20014
S11300600C94C2000C94C2000000010303050606B0
S11300700707080707070505040402020100010138
S11300800101020406080A0E1014181B2024282C4F
S11300902F3336383B3E3D3E3F3D3C3A3734312DDD
S11300A028241F1A16120E0A070502030304050862
S11300B00C10151C232931394149515960666D7161
S11300C075797C7B7B7A76736E67615A52494038C6
S11300D02F261F18110D0905050506090E131A23ED
S11300E02C38424E5A66727E8A949DA6ADB2B7BA37
S11300F0B9B8B6B0AAA2988E83776A5D5143372DFA
S11301002319120D080707090D131B25303D4C5BFD
S11301106B7B8B9CABBBC8D4E0E8EFF4F8F6F3ED53
S1130120E5DBD0C3B4A594847362534436291E1608
S11301300F0A08080A0F161E293643536273849463
S1130140A5B4C3D0DBE5EDF3F60011241FBECFEF59
S1130150D8E0DEBFCDBF11E0A0E0B1E0EEE4F5E011
S113016002C005900D92A630B107D9F721E0A6E0B0
S1130170B1E001C01D92A930B207E1F70E948901E4
S11301800C94A5020C94000089B186FB882780F9A1
S113019091E089270895882311F0289A08952898D2
S11301A008958FEF84B98EEF87B98FE38AB915B8B4
S11301B018B880EC8BB9089583E284BD15BC18BCD3
S11301C01092800088E08093810080E49FE1909306
S11301D089008093880081E080936E0082E08093A0
S11301E06F000895E1E8F0E08081816080830895E4
S11301F085B5816085BD81E00E94CB00E8E6F0E032
S11302002CE131E0809108018823E1F31092080188
S1130210849188BD3196E217F307A1F70895BC01D4
S1130220892BB9F040E050E029E431E0ECE1F1E061
S1130230909108019923E1F310920801949198BDDB
S11302403196E217F307A1F74F5F5F4F6417750705
S113025069F70895EBE1F1E027E630E080910801C9
S11302608823E1F310920801849188BD3197E21745
S1130270F307A1F785B58E7F85BD80E00E94CB0092
S11302800895AC01892B71F020E030E09DE285E512
S11302908A95F1F700009150D1F72F5F3F4F421735
S11302A05307A1F70895CF93DF93EC010E94F80060
S11302B0CE010E940F010E942A0110920601CE0174
S11302C00E94410180910601882311F082E001C05F
S11302D080E0DF91CF910895CF93DF93EC010E94EA
S11302E0F800CE01880F991F0E940F011092070198
S11302F0CE010E940F010E942A01CE010E944101F9
S11303009091070181E0911101C080E0DF91CF91CC
S113031008950E94D1000E94DC000E94F1010E9415
S1130320610278940E94F20080E0D1E0C0E0811183
S11303300AC0909107018091060181110CC08D2F94
S1130340911101C08C2F813021F48EE190E00E9444
S11303505301823021F48EE190E00E946C01C0933D
S11303600701C0930601E3CF1F920F920FB60F92BD
S113037011248F9381E0809308018F910F900FBE19
S11303800F901F9018951F920F920FB60F92112481
S11303902F933F934F935F936F937F938F939F9389
S11303A0AF93BF93EF93FF930E94C400882319F087
S11303B081E0809307014F9903C081E08093060197
S11303C0FF91EF91BF91AF919F918F917F916F9129
S11303D05F914F913F912F910F900FBE0F901F90FF
S11303E018951092B90088EF8093B800089584EAB4
S11303F08093BC00ECEBF0E080818823ECF7089557
S113040084E98093BC00ECEBF0E0808184FFFDCFB5
S113041008958093BB0084E88093BC00ECEBF0E08B
S113042080818823ECF70895EF92FF920F931F9336
S1130430CF93DF938C01D62F0E94F7018CE70E94A3
S113044009028091B900887F883179F580E00E94A3
S113045009028091B900887F883249F5DD23D9F0FB
S11304607801D1508D2F90E00196E801C80FD91F73
S113047009EB10E0F70181917F010E940902F80164
S11304808081887F8832A9F4F1E2FA95F1F70000BF
S1130490EC16FD0679F70E94000289EF90E00197BF
S11304A0F1F700C0000080E005C08FEF03C08FEFBC
S11304B001C08FEFDF91CF911F910F91FF90EF90CB
S11304C00895CF93DF93CDB7DEB729970FB6F8948D
S11304D0DEBF0FBECDBF86E0E0E0F1E0DE011196A5
S11304E001900D928A95E1F788E38F838CE08887E9
S11304F081E089878FE097E20197F1F700C000005F
S11305000E94F10166E0CE0101960E94140281115D
S113051013C0EFE4F3EC3197F1F700C0000063E09F
S1130520CE0107960E941402811106C0E7E8F3E1A8
S11305303197F1F700C0000029960FB6F894DEBF9A
S11105400FBECDBFDF91CF910895F894FFCF89
S109054E38391470566CEC
S9030000FC
