S01500004D6F72736550726163746963652E73726563DE
S113000083C090C08FC08EC06FC18CC05EC18AC0D7
S113001089C088C087C086C085C084C083C082C0B0
S113002081C080C07FC000000103030506060707E6
S11300300807070705050404020201000101010184
S1130040020406080A0E1014181B2024282C2F332F
S113005036383B3E3D3E3F3D3C3A3734312D282433
S11300601F1A16120E0A07050203030405080C10D2
S1130070151C232931394149515960666D717579CF
S11300807C7B7B7A76736E67615A524940382F269F
S11300901F18110D0905050506090E131A232C381E
S11300A0424E5A66727E8A949DA6ADB2B7BAB9B86A
S11300B0B6B0AAA2988E83776A5D5143372D23196F
S11300C0120D080707090D131B25303D4C5B6B7B94
S11300D08B9CABBBC8D4E0E8EFF4F8F6F3EDE5DBBA
S11300E0D0C3B4A594847362534436291E160F0AF0
S11300F008080A0F161E2936435362738494A5B464
S1130100C3D0DBE5EDF3F60011241FBECFEDCDBF68
S113011020E0A0E6B0E001C01D92A336B207E1F7EB
S1130120B2D010C16DCF86B38695817091E08927D6
S1130130089586B3809581700895882311F0909A6C
S11301400895909808958CEF87BB8FEF81BB83E06F
S113015088BB12BA089583E280BF13BE1CBE1FBCC5
S113016088E08EBD80E49FE19BBD8ABD82E489BFA7
S113017008958EB581608EBD089583B7816083BF75
S113018081E0DBDFE6E2F0E02AED30E0809162001E
S11301908823E1F31092620084918CBF3196E217B8
S11301A0F307A1F70895BC01892BB9F040E050E0B2
S11301B027E031E0EAEDF0E0909162009923E1F369
S11301C01092620094919CBF3196E217F307A1F755
S11301D04F5F5F4F6417750769F70895E9EDF0E025
S11301E025E230E0809162008823E1F310926200FE
S11301F084918CBF3197E217F307A1F783B78E7F01
S113020083BF80E09ADF0895AC01892B71F020E070
S113021030E09DE285E58A95F1F700009150D1F731
S11302202F5F3F4F42175307A1F70895CF93DF93F2
S1130230EC01A3DFCE01B7DFD1DF10926000CE0165
S1130240E3DF80916000882311F082E001C080E048
S1130250DF91CF910895CF93DF93EC018EDFCE0130
S1130260880F991FA0DF10926100CE019CDFB6DFDA
S1130270CE01CADF9091610081E0911101C080E05C
S1130280DF91CF9108955FDF66DF789472DF80E0BD
S1130290D1E0C0E081110AC09091610080916000BA
S11302A081110BC08D2F911101C08C2F813019F455
S11302B08EE190E0BBDF823019F48EE190E0CBDF79
S11302C0C0936100C0936000E5CF1F920F920FB6F8
S11302D00F9211248F9381E0809362008F910F908D
S11302E00FBE0F901F9018951F920F920FB60F928A
S11302F011242F933F934F935F936F937F938F9327
S11303009F93AF93BF93EF93FF930DDF882319F06F
S113031081E0809361000DDF882319F081E08093F0
S11303206000FF91EF91BF91AF919F918F917F9169
S11303306F915F914F913F912F910F900FBE0F904E
S10B03401F901895F894FFCFFB
S9030000FC
